{
  "contractName": "reddit_button",
  "abi": [
    {
      "inputs": [],
      "stateMutability": "nonpayable",
      "type": "constructor"
    },
    {
      "inputs": [
        {
          "internalType": "address",
          "name": "",
          "type": "address"
        }
      ],
      "name": "addressToAmountFunded",
      "outputs": [
        {
          "internalType": "uint256",
          "name": "",
          "type": "uint256"
        }
      ],
      "stateMutability": "view",
      "type": "function"
    },
    {
      "inputs": [
        {
          "internalType": "uint256",
          "name": "",
          "type": "uint256"
        }
      ],
      "name": "clickOrderToAddress",
      "outputs": [
        {
          "internalType": "address",
          "name": "",
          "type": "address"
        }
      ],
      "stateMutability": "view",
      "type": "function"
    },
    {
      "inputs": [],
      "name": "press_button",
      "outputs": [],
      "stateMutability": "payable",
      "type": "function"
    },
    {
      "inputs": [],
      "name": "claim_treasure",
      "outputs": [],
      "stateMutability": "payable",
      "type": "function"
    },
    {
      "inputs": [],
      "name": "get_totalAmountFunded",
      "outputs": [
        {
          "internalType": "uint256",
          "name": "",
          "type": "uint256"
        }
      ],
      "stateMutability": "view",
      "type": "function"
    }
  ],
  "bytecode": "0x608060405234801561001057600080fd5b50600080819055506000600181905550436002819055506105e6806100366000396000f3fe60806040526004361061004a5760003560e01c80630736783d1461004f5780633e47d6f31461005957806344edb3f914610096578063865bf7b1146100d3578063aef4da6b146100fe575b600080fd5b610057610108565b005b34801561006557600080fd5b50610080600480360381019061007b9190610421565b6101ed565b60405161008d9190610467565b60405180910390f35b3480156100a257600080fd5b506100bd60048036038101906100b891906104ae565b610205565b6040516100ca91906104ea565b60405180910390f35b3480156100df57600080fd5b506100e8610238565b6040516100f59190610467565b60405180910390f35b610106610242565b005b6001600360003373ffffffffffffffffffffffffffffffffffffffff1673ffffffffffffffffffffffffffffffffffffffff16815260200190815260200160002060008282546101589190610534565b9250508190555060018060008282546101719190610534565b92505081905550600160008082825461018a9190610534565b9250508190555033600460008054815260200190815260200160002060006101000a81548173ffffffffffffffffffffffffffffffffffffffff021916908373ffffffffffffffffffffffffffffffffffffffff16021790555043600281905550565b60036020528060005260406000206000915090505481565b60046020528060005260406000206000915054906101000a900473ffffffffffffffffffffffffffffffffffffffff1681565b6000600154905090565b60036002546102519190610534565b431161025c57600080fd5b600460008054815260200190815260200160002060009054906101000a900473ffffffffffffffffffffffffffffffffffffffff1673ffffffffffffffffffffffffffffffffffffffff163373ffffffffffffffffffffffffffffffffffffffff16146102c857600080fd5b3373ffffffffffffffffffffffffffffffffffffffff166108fc6001549081150290604051600060405180830381858888f19350505050158015610310573d6000803e3d6000fd5b5060006001819055506000600190505b60005481116103b4576000600360006004600085815260200190815260200160002060009054906101000a900473ffffffffffffffffffffffffffffffffffffffff1673ffffffffffffffffffffffffffffffffffffffff1673ffffffffffffffffffffffffffffffffffffffff1681526020019081526020016000208190555080806103ac90610568565b915050610320565b5060008081905550565b600080fd5b600073ffffffffffffffffffffffffffffffffffffffff82169050919050565b60006103ee826103c3565b9050919050565b6103fe816103e3565b811461040957600080fd5b50565b60008135905061041b816103f5565b92915050565b600060208284031215610437576104366103be565b5b60006104458482850161040c565b91505092915050565b6000819050919050565b6104618161044e565b82525050565b600060208201905061047c6000830184610458565b92915050565b61048b8161044e565b811461049657600080fd5b50565b6000813590506104a881610482565b92915050565b6000602082840312156104c4576104c36103be565b5b60006104d284828501610499565b91505092915050565b6104e4816103e3565b82525050565b60006020820190506104ff60008301846104db565b92915050565b7f4e487b7100000000000000000000000000000000000000000000000000000000600052601160045260246000fd5b600061053f8261044e565b915061054a8361044e565b925082820190508082111561056257610561610505565b5b92915050565b60006105738261044e565b91507fffffffffffffffffffffffffffffffffffffffffffffffffffffffffffffffff82036105a5576105a4610505565b5b60018201905091905056fea2646970667358221220e347ee505d5edcbf1042480d5c85b4c6e1f051bf2ce282fb556e2414ba37de7f64736f6c63430008110033",
  "immutableReferences": {},
  "source": "// SPDX-License-Identifier: MIT\n\npragma solidity >=0.6.6 <0.9.0;\n\n/**\nWrite a contract in Solidity that is similar to The Button on reddit (r/thebutton),\n where participants pay a fixed amount of ether to call press_button, and then\n  if 3 blocks pass without someone calling press_button, whoever pressed the button\n   last can call claim_treasure and get the other participants deposits.\n */\ncontract reddit_button {\n    uint256 currentOrderNumber;\n    uint256 totalAmountFunded;\n    uint256 lastCallBlockNumber;\n\n    // // array of addresses who deposited\n    // address[] public funders;\n    //mapping to store which address depositeded how much ETH\n    mapping(address => uint256) public addressToAmountFunded;\n    //mapping to store which address depositeded how much ETH\n    mapping(uint256 => address) public clickOrderToAddress;\n\n    constructor() public {\n        currentOrderNumber = 0;\n        totalAmountFunded = 0;\n        lastCallBlockNumber = block.number;\n    }\n    function press_button() public payable {\n        //if not, add to mapping and funders array\n        addressToAmountFunded[msg.sender] += 1;\n        totalAmountFunded += 1;\n        currentOrderNumber += 1;\n        clickOrderToAddress[currentOrderNumber] = msg.sender;\n        lastCallBlockNumber = block.number;\n    }\n    //modifier: https://medium.com/coinmonks/solidity-tutorial-all-about-modifiers-a86cf81c14cb\n    modifier onlyLastCall3BlocksAway() {\n        //is the message sender owner of the contract?\n        require(block.number > lastCallBlockNumber + 3);\n        require(msg.sender == clickOrderToAddress[currentOrderNumber]);\n        _;\n    }\n    function claim_treasure() public payable onlyLastCall3BlocksAway {\n        payable(msg.sender).transfer(totalAmountFunded);\n        totalAmountFunded = 0;\n        for (uint256 i = 1; i <= currentOrderNumber; i++) {\n            addressToAmountFunded[clickOrderToAddress[i]] = 0;\n        }\n        currentOrderNumber = 0;\n\n        // //funders array will be initialized to 0\n        // funders = new address[](0);\n    }\n    function get_totalAmountFunded() public view returns (uint256) {\n      return totalAmountFunded;\n    }\n}",
  "sourcePath": "/Users/yuan/Documents/Xinxin/Learning/solidity-coding/Sample_projects/contracts/NewContract.sol",
  "compiler": {
    "name": "solc",
    "version": "0.8.17+commit.8df45f5f.Emscripten.clang"
  },
  "schemaVersion": "3.4.10",
  "updatedAt": "2022-11-14T09:04:04.970Z",
  "devdoc": {
    "kind": "dev",
    "methods": {},
    "version": 1
  },
  "userdoc": {
    "kind": "user",
    "methods": {},
    "notice": "Write a contract in Solidity that is similar to The Button on reddit (r/thebutton), where participants pay a fixed amount of ether to call press_button, and then if 3 blocks pass without someone calling press_button, whoever pressed the button last can call claim_treasure and get the other participants deposits.",
    "version": 1
  }
}